{
  "contractName": "SimpleStorage",
  "abi": [
    {
      "inputs": [
        {
          "internalType": "uint256",
          "name": "x",
          "type": "uint256"
        }
      ],
      "name": "set",
      "outputs": [],
      "stateMutability": "nonpayable",
      "type": "function"
    },
    {
      "inputs": [
        {
          "internalType": "uint256",
          "name": "x",
          "type": "uint256"
        }
      ],
      "name": "set2",
      "outputs": [],
      "stateMutability": "nonpayable",
      "type": "function"
    },
    {
      "inputs": [],
      "name": "get",
      "outputs": [
        {
          "internalType": "uint256",
          "name": "",
          "type": "uint256"
        }
      ],
      "stateMutability": "view",
      "type": "function"
    },
    {
      "inputs": [],
      "name": "get2",
      "outputs": [
        {
          "internalType": "uint256",
          "name": "",
          "type": "uint256"
        }
      ],
      "stateMutability": "view",
      "type": "function"
    }
  ],
  "bytecode": "0x608060405234801561001057600080fd5b5060d88061001f6000396000f3fe6080604052348015600f57600080fd5b506004361060465760003560e01c806360fe47b114604b5780636d4ce63c14605d578063ce01e1ec146073578063d2178b08146083575b600080fd5b605b6056366004608a565b600055565b005b6000545b60405190815260200160405180910390f35b605b607e366004608a565b600155565b6001546061565b600060208284031215609b57600080fd5b503591905056fea26469706673582212208c725dcc7dac6b31f95440c449be3de18af5d9a79240fb2d5122ef7e3bfde19e64736f6c63430008070033",
  "immutableReferences": {},
  "source": "// SPDX-License-Identifier: MIT\npragma solidity >=0.8.0 <0.9.0;\n\ncontract SimpleStorage {\n  uint storedData;\n  uint storedData2;\n\n  function set(uint x) public {\n    storedData = x;\n  }\n\n  function set2(uint x) public {\n    storedData2 = x;\n  }\n\n  function get() public view returns (uint) {\n    return storedData;\n  }\n  \n  function get2() public view returns (uint) {\n    return storedData2;\n  }\n\n}\n",
  "sourcePath": "C:\\Users\\syund\\eclipse-workspace\\AnimeLootHoghoge\\contracts\\SimpleStorage.sol",
  "compiler": {
    "name": "solc",
    "version": "0.8.7+commit.e28d00a7.Emscripten.clang"
  },
  "schemaVersion": "3.4.3",
  "updatedAt": "2021-09-29T13:30:05.326Z",
  "devdoc": {
    "kind": "dev",
    "methods": {},
    "version": 1
  },
  "userdoc": {
    "kind": "user",
    "methods": {},
    "version": 1
  }
}